{
  "contractName": "AppMachine",
  "abi": [
    {
      "inputs": [
        {
          "internalType": "address payable",
          "name": "machAddress",
          "type": "address"
        }
      ],
      "payable": false,
      "stateMutability": "nonpayable",
      "type": "constructor"
    },
    {
      "anonymous": false,
      "inputs": [
        {
          "indexed": true,
          "internalType": "address",
          "name": "sender",
          "type": "address"
        },
        {
          "indexed": false,
          "internalType": "string",
          "name": "name",
          "type": "string"
        }
      ],
      "name": "FunctionCalled",
      "type": "event"
    },
    {
      "constant": true,
      "inputs": [],
      "name": "myRequest",
      "outputs": [
        {
          "internalType": "uint256",
          "name": "StartTime",
          "type": "uint256"
        },
        {
          "internalType": "uint256",
          "name": "Duration",
          "type": "uint256"
        },
        {
          "internalType": "uint256",
          "name": "Quality",
          "type": "uint256"
        },
        {
          "internalType": "uint256",
          "name": "Type",
          "type": "uint256"
        }
      ],
      "payable": false,
      "stateMutability": "view",
      "type": "function"
    },
    {
      "constant": true,
      "inputs": [],
      "name": "publicData",
      "outputs": [
        {
          "internalType": "uint256",
          "name": "",
          "type": "uint256"
        }
      ],
      "payable": false,
      "stateMutability": "view",
      "type": "function"
    },
    {
      "constant": true,
      "inputs": [],
      "name": "requestAcknowledged",
      "outputs": [
        {
          "internalType": "bool",
          "name": "",
          "type": "bool"
        }
      ],
      "payable": false,
      "stateMutability": "view",
      "type": "function"
    },
    {
      "constant": true,
      "inputs": [],
      "name": "requestSent",
      "outputs": [
        {
          "internalType": "bool",
          "name": "",
          "type": "bool"
        }
      ],
      "payable": false,
      "stateMutability": "view",
      "type": "function"
    },
    {
      "constant": true,
      "inputs": [],
      "name": "requiredToken",
      "outputs": [
        {
          "internalType": "uint256",
          "name": "",
          "type": "uint256"
        }
      ],
      "payable": false,
      "stateMutability": "view",
      "type": "function"
    },
    {
      "constant": true,
      "inputs": [],
      "name": "tokenTransferred",
      "outputs": [
        {
          "internalType": "bool",
          "name": "",
          "type": "bool"
        }
      ],
      "payable": false,
      "stateMutability": "view",
      "type": "function"
    },
    {
      "constant": false,
      "inputs": [
        {
          "internalType": "uint256",
          "name": "startTime",
          "type": "uint256"
        },
        {
          "internalType": "uint256",
          "name": "duration",
          "type": "uint256"
        },
        {
          "internalType": "uint256",
          "name": "quality",
          "type": "uint256"
        },
        {
          "internalType": "uint256",
          "name": "infType",
          "type": "uint256"
        }
      ],
      "name": "sendRequest",
      "outputs": [],
      "payable": false,
      "stateMutability": "nonpayable",
      "type": "function"
    },
    {
      "constant": false,
      "inputs": [],
      "name": "requestToken",
      "outputs": [],
      "payable": false,
      "stateMutability": "nonpayable",
      "type": "function"
    },
    {
      "constant": false,
      "inputs": [],
      "name": "sendToken",
      "outputs": [],
      "payable": true,
      "stateMutability": "payable",
      "type": "function"
    },
    {
      "constant": false,
      "inputs": [],
      "name": "encoder",
      "outputs": [
        {
          "internalType": "bytes",
          "name": "",
          "type": "bytes"
        }
      ],
      "payable": false,
      "stateMutability": "nonpayable",
      "type": "function"
    },
    {
      "constant": false,
      "inputs": [],
      "name": "setData",
      "outputs": [
        {
          "internalType": "bool",
          "name": "",
          "type": "bool"
        }
      ],
      "payable": false,
      "stateMutability": "nonpayable",
      "type": "function"
    },
    {
      "constant": true,
      "inputs": [],
      "name": "getMachineAddress",
      "outputs": [
        {
          "internalType": "address",
          "name": "",
          "type": "address"
        }
      ],
      "payable": false,
      "stateMutability": "view",
      "type": "function"
    },
    {
      "constant": true,
      "inputs": [],
      "name": "getContractAddress",
      "outputs": [
        {
          "internalType": "address",
          "name": "",
          "type": "address"
        }
      ],
      "payable": false,
      "stateMutability": "view",
      "type": "function"
    },
    {
      "constant": true,
      "inputs": [],
      "name": "getStartTime",
      "outputs": [
        {
          "internalType": "uint256",
          "name": "",
          "type": "uint256"
        }
      ],
      "payable": false,
      "stateMutability": "view",
      "type": "function"
    },
    {
      "constant": true,
      "inputs": [],
      "name": "getDuration",
      "outputs": [
        {
          "internalType": "uint256",
          "name": "",
          "type": "uint256"
        }
      ],
      "payable": false,
      "stateMutability": "view",
      "type": "function"
    },
    {
      "constant": true,
      "inputs": [],
      "name": "getQuality",
      "outputs": [
        {
          "internalType": "uint256",
          "name": "",
          "type": "uint256"
        }
      ],
      "payable": false,
      "stateMutability": "view",
      "type": "function"
    },
    {
      "constant": true,
      "inputs": [],
      "name": "getType",
      "outputs": [
        {
          "internalType": "uint256",
          "name": "",
          "type": "uint256"
        }
      ],
      "payable": false,
      "stateMutability": "view",
      "type": "function"
    },
    {
      "constant": true,
      "inputs": [],
      "name": "getAppAddress",
      "outputs": [
        {
          "internalType": "address",
          "name": "",
          "type": "address"
        }
      ],
      "payable": false,
      "stateMutability": "view",
      "type": "function"
    },
    {
      "constant": true,
      "inputs": [],
      "name": "getRequiredToken",
      "outputs": [
        {
          "internalType": "uint256",
          "name": "",
          "type": "uint256"
        }
      ],
      "payable": false,
      "stateMutability": "view",
      "type": "function"
    },
    {
      "constant": true,
      "inputs": [],
      "name": "getTokenTrasnferredStatus",
      "outputs": [
        {
          "internalType": "bool",
          "name": "",
          "type": "bool"
        }
      ],
      "payable": false,
      "stateMutability": "view",
      "type": "function"
    },
    {
      "constant": true,
      "inputs": [],
      "name": "getRequestSentStatus",
      "outputs": [
        {
          "internalType": "bool",
          "name": "",
          "type": "bool"
        }
      ],
      "payable": false,
      "stateMutability": "view",
      "type": "function"
    },
    {
      "constant": true,
      "inputs": [],
      "name": "getRequestAcknowledgeStatus",
      "outputs": [
        {
          "internalType": "bool",
          "name": "",
          "type": "bool"
        }
      ],
      "payable": false,
      "stateMutability": "view",
      "type": "function"
    },
    {
      "constant": true,
      "inputs": [],
      "name": "getPublicData",
      "outputs": [
        {
          "internalType": "uint256",
          "name": "",
          "type": "uint256"
        }
      ],
      "payable": false,
      "stateMutability": "view",
      "type": "function"
    }
  ],
  "bytecode": "0x608060405234801561001057600080fd5b5060405161114c38038061114c8339818101604052602081101561003357600080fd5b810190808051906020019092919050505080600160006101000a81548173ffffffffffffffffffffffffffffffffffffffff021916908373ffffffffffffffffffffffffffffffffffffffff1602179055506000600860026101000a81548160ff0219169083151502179055506000600860006101000a81548160ff0219169083151502179055506000600860016101000a81548160ff021916908315150217905550336000806101000a81548173ffffffffffffffffffffffffffffffffffffffff021916908373ffffffffffffffffffffffffffffffffffffffff16021790555030600260006101000a81548173ffffffffffffffffffffffffffffffffffffffff021916908373ffffffffffffffffffffffffffffffffffffffff160217905550604051610163906101c6565b604051809103906000f08015801561017f573d6000803e3d6000fd5b50600860036101000a81548173ffffffffffffffffffffffffffffffffffffffff021916908373ffffffffffffffffffffffffffffffffffffffff160217905550506101d3565b61014a8061100283390190565b610e20806101e26000396000f3fe6080604052600436106101405760003560e01c80639bf2324a116100b6578063bf7ce7421161006f578063bf7ce74214610512578063c5822c0d1461053d578063c828371e1461056c578063cfbe292714610597578063da464ed7146105d7578063f31604c71461060657610140565b80639bf2324a146104015780639c06c4dc1461042c578063a1ad566614610457578063ad2e8c9b14610486578063b11277c0146104b1578063b8972db51461050857610140565b80635764274311610108578063576427431461029d57806363f6a6da146102cc5780636a0c66c8146103235780638a204ed61461037c5780638dd24721146103a75780639a76717a146103d657610140565b806306df14161461014557806315dae03e146101d557806332a2c5d01461020057806333a54ac6146102575780634d7ec62814610286575b600080fd5b34801561015157600080fd5b5061015a610635565b6040518080602001828103825283818151815260200191508051906020019080838360005b8381101561019a57808201518184015260208101905061017f565b50505050905090810190601f1680156101c75780820380516001836020036101000a031916815260200191505b509250505060405180910390f35b3480156101e157600080fd5b506101ea610770565b6040518082815260200191505060405180910390f35b34801561020c57600080fd5b5061021561077c565b604051808273ffffffffffffffffffffffffffffffffffffffff1673ffffffffffffffffffffffffffffffffffffffff16815260200191505060405180910390f35b34801561026357600080fd5b5061026c6107a6565b604051808215151515815260200191505060405180910390f35b34801561029257600080fd5b5061029b6107bd565b005b3480156102a957600080fd5b506102b2610867565b604051808215151515815260200191505060405180910390f35b3480156102d857600080fd5b506102e161087a565b604051808273ffffffffffffffffffffffffffffffffffffffff1673ffffffffffffffffffffffffffffffffffffffff16815260200191505060405180910390f35b34801561032f57600080fd5b5061037a6004803603608081101561034657600080fd5b81019080803590602001909291908035906020019092919080359060200190929190803590602001909291905050506108a3565b005b34801561038857600080fd5b506103916109c5565b6040518082815260200191505060405180910390f35b3480156103b357600080fd5b506103bc6109cb565b604051808215151515815260200191505060405180910390f35b3480156103e257600080fd5b506103eb6109de565b6040518082815260200191505060405180910390f35b34801561040d57600080fd5b506104166109e4565b6040518082815260200191505060405180910390f35b34801561043857600080fd5b506104416109f1565b6040518082815260200191505060405180910390f35b34801561046357600080fd5b5061046c6109fb565b604051808215151515815260200191505060405180910390f35b34801561049257600080fd5b5061049b610a12565b6040518082815260200191505060405180910390f35b3480156104bd57600080fd5b506104c6610a1f565b604051808273ffffffffffffffffffffffffffffffffffffffff1673ffffffffffffffffffffffffffffffffffffffff16815260200191505060405180910390f35b610510610a49565b005b34801561051e57600080fd5b50610527610b4e565b6040518082815260200191505060405180910390f35b34801561054957600080fd5b50610552610b58565b604051808215151515815260200191505060405180910390f35b34801561057857600080fd5b50610581610b6b565b6040518082815260200191505060405180910390f35b3480156105a357600080fd5b506105ac610b78565b6040518085815260200184815260200183815260200182815260200194505050505060405180910390f35b3480156105e357600080fd5b506105ec610b96565b604051808215151515815260200191505060405180910390f35b34801561061257600080fd5b5061061b610bad565b604051808215151515815260200191505060405180910390f35b60606040516024016040516020818303038152906040527ff31604c7000000000000000000000000000000000000000000000000000000007bffffffffffffffffffffffffffffffffffffffffffffffffffffffff19166020820180517bffffffffffffffffffffffffffffffffffffffffffffffffffffffff8381831617835250505050600990805190602001906106cf929190610d46565b5060098054600181600116156101000203166002900480601f0160208091040260200160405190810160405280929190818152602001828054600181600116156101000203166002900480156107665780601f1061073b57610100808354040283529160200191610766565b820191906000526020600020905b81548152906001019060200180831161074957829003601f168201915b5050505050905090565b60006003800154905090565b6000600260009054906101000a900473ffffffffffffffffffffffffffffffffffffffff16905090565b6000600860019054906101000a900460ff16905090565b6107c5610cfe565b6007819055506001600860016101000a81548160ff0219169083151502179055503373ffffffffffffffffffffffffffffffffffffffff167f618191079b759c0e8f74514441817b7d0c6dee793d7edc2ac0fbff12ca88f89360405180806020018281038252600c8152602001807f72657175657374546f6b656e000000000000000000000000000000000000000081525060200191505060405180910390a2565b600860019054906101000a900460ff1681565b60008060009054906101000a900473ffffffffffffffffffffffffffffffffffffffff16905090565b836003600001819055508260036001018190555081600360020181905550806003800181905550336000806101000a81548173ffffffffffffffffffffffffffffffffffffffff021916908373ffffffffffffffffffffffffffffffffffffffff1602179055506001600860006101000a81548160ff0219169083151502179055506000600860026101000a81548160ff0219169083151502179055503373ffffffffffffffffffffffffffffffffffffffff167f618191079b759c0e8f74514441817b7d0c6dee793d7edc2ac0fbff12ca88f89360405180806020018281038252600b8152602001807f73656e645265717565737400000000000000000000000000000000000000000081525060200191505060405180910390a250505050565b60075481565b600860009054906101000a900460ff1681565b600a5481565b6000600360020154905090565b6000600754905090565b6000600860029054906101000a900460ff16905090565b6000600360010154905090565b6000600160009054906101000a900473ffffffffffffffffffffffffffffffffffffffff16905090565b600160009054906101000a900473ffffffffffffffffffffffffffffffffffffffff1673ffffffffffffffffffffffffffffffffffffffff166108fc349081150290604051600060405180830381858888f19350505050158015610ab1573d6000803e3d6000fd5b506001600860026101000a81548160ff0219169083151502179055503373ffffffffffffffffffffffffffffffffffffffff167f618191079b759c0e8f74514441817b7d0c6dee793d7edc2ac0fbff12ca88f8936040518080602001828103825260098152602001807f73656e64546f6b656e000000000000000000000000000000000000000000000081525060200191505060405180910390a2565b6000600a54905090565b600860029054906101000a900460ff1681565b6000600360000154905090565b60038060000154908060010154908060020154908060030154905084565b6000600860009054906101000a900460ff16905090565b600060011515600860029054906101000a900460ff16151514610bcf57600080fd5b600860039054906101000a900473ffffffffffffffffffffffffffffffffffffffff1673ffffffffffffffffffffffffffffffffffffffff1663770b54146040518163ffffffff1660e01b815260040160206040518083038186803b158015610c3757600080fd5b505afa158015610c4b573d6000803e3d6000fd5b505050506040513d6020811015610c6157600080fd5b8101908080519060200190929190505050600a819055503373ffffffffffffffffffffffffffffffffffffffff167f618191079b759c0e8f74514441817b7d0c6dee793d7edc2ac0fbff12ca88f8936040518080602001828103825260078152602001807f736574446174610000000000000000000000000000000000000000000000000081525060200191505060405180910390a26001905090565b600080600160038001541415610d25576706f05b59d3b20000600360010154029050610d3f565b6003600201546706f05b59d3b20000600360010154020290505b8091505090565b828054600181600116156101000203166002900490600052602060002090601f016020900481019282601f10610d8757805160ff1916838001178555610db5565b82800160010185558215610db5579182015b82811115610db4578251825591602001919060010190610d99565b5b509050610dc29190610dc6565b5090565b610de891905b80821115610de4576000816000905550600101610dcc565b5090565b9056fea265627a7a72315820f364759184c086a011161a73f1a92cecf1ac251f9a3dcfd2e16a1e920397b13f64736f6c63430005100032608060405234801561001057600080fd5b5061022b60008190555033600160006101000a81548173ffffffffffffffffffffffffffffffffffffffff021916908373ffffffffffffffffffffffffffffffffffffffff16021790555060e1806100696000396000f3fe6080604052348015600f57600080fd5b506004361060285760003560e01c8063770b541414602d575b600080fd5b60336049565b6040518082815260200191505060405180910390f35b6000600160009054906101000a900473ffffffffffffffffffffffffffffffffffffffff1673ffffffffffffffffffffffffffffffffffffffff163373ffffffffffffffffffffffffffffffffffffffff161460a457600080fd5b60005490509056fea265627a7a72315820361d14116da6a694b98cbd2d25d357013fd4f087a5f791aabe41d5cb7e15a21d64736f6c63430005100032",
  "source": "pragma solidity ^0.5.0;\r\n// We have to specify what version of compiler this code will compile with\r\n\r\nimport './ERC827.sol';\r\nimport './Sensor.sol';\r\n\r\ncontract AppMachine {\r\n\r\n\r\n    address private appAddress;\r\n\r\n    address payable private machineAddress;\r\n\r\n    address contractAddress;\r\n\r\n    struct RequestApp {\r\n/*Unix time takes the format of uint256 */\r\n        uint256 StartTime;\r\n        uint256 Duration;\r\n        uint Quality;\r\n        uint Type;\r\n    }\r\n\r\n    RequestApp public myRequest;\r\n    uint256 public requiredToken;\r\n    bool public requestSent;\r\n    bool public requestAcknowledged;\r\n    bool public tokenTransferred;\r\n\r\n    Sensor sensor1;\r\n\r\n    //Event, welches beim Debuggen hilft\r\n    event FunctionCalled(\r\n        address indexed sender,\r\n        string name\r\n    );\r\n\r\n\r\n    /* This is the constructor which will be called once when you\r\n    deploy the contract to the blockchain. When we deploy the contract,\r\n    we will pass the address of the the app which makes the request and the target machine/sensor\r\n    and also the request parameter such as startime, duration, and quality\r\n    */\r\n\r\n    constructor(address payable machAddress)  public {\r\n        machineAddress = machAddress;\r\n        tokenTransferred = false;\r\n        requestSent = false;\r\n        requestAcknowledged = false;\r\n\r\n        appAddress = msg.sender;\r\n        contractAddress = address(this);\r\n\r\n        //Sensor erzeugen\r\n        sensor1 = new Sensor();\r\n    }\r\n\r\n\r\n  // This is the sendRequest function called by the machine\r\n    function sendRequest(uint startTime, uint duration, uint quality, uint infType) public {   \r\n        myRequest.StartTime = startTime;\r\n        myRequest.Duration = duration;\r\n        myRequest.Quality = quality;\r\n        myRequest.Type = infType;\r\n        appAddress = msg.sender;\r\n        requestSent = true;\r\n        tokenTransferred = false;\r\n\r\n        emit FunctionCalled(msg.sender, \"sendRequest\");\r\n    }\r\n\r\n\r\n  /*\r\n  In this function we are calculating the token requiredToken\r\n  this function is an internal function called by the requestToken() function\r\n  */\r\n    function calculateToken() private view returns (uint) {\r\n        uint256 tokenAmount;\r\n\r\n        if(myRequest.Type == 1) tokenAmount = myRequest.Duration*5e17;\r\n        else tokenAmount = (myRequest.Duration*5e17) * myRequest.Quality;\r\n        \r\n        return tokenAmount;\r\n    }\r\n\r\n    /*\r\n    Once the machine receives a requests it calls this function\r\n    It calculates the number of tokens required\r\n    */\r\n    function requestToken() public {\r\n        requiredToken = calculateToken();\r\n        requestAcknowledged = true;\r\n\r\n        emit FunctionCalled(msg.sender, \"requestToken\");\r\n    }\r\n\r\n    /*\r\n    Once the App sees that the machine is requesting for token,\r\n    this function is invoked. to send the token.\r\n    if successfully tranferred then the tokenTranferred parameter is made true\r\n    */\r\n    function sendToken() public payable  {\r\n        machineAddress.transfer(msg.value);\r\n        tokenTransferred = true;\r\n\r\n        emit FunctionCalled(msg.sender, \"sendToken\");\r\n    }\r\n\r\n/*\r\n    Data handler\r\n*/\r\n\r\n    //Hilfsfunktion zum Encoden eines Funktionsaufrufs. Wird für die ERC-827 Call-Funktionalität benötigt\r\n    bytes code;\r\n    function encoder() public returns(bytes memory)\r\n    {\r\n        code = abi.encodeWithSignature(\"setData()\");\r\n        return code;\r\n    }\r\n\r\n    //Einsehbare Datan\r\n    uint256 public publicData;\r\n    \r\n    //Prüft, ob schon bezahlt\r\n    modifier isPaid()\r\n    {\r\n        require(tokenTransferred == true);\r\n        _;\r\n    }\r\n\r\n    //Entnimmt die Daten vom Sensor\r\n    function setData() public isPaid returns(bool) { \r\n        publicData = sensor1.getCurrentData();\r\n\r\n        emit FunctionCalled(msg.sender, \"setData\");\r\n\r\n        return true;\r\n    }\r\n\r\n/*\r\n\tgetter functions\r\n*/\r\n\r\n    function getMachineAddress() public view returns (address){\r\n      return machineAddress;\r\n    }\r\n    function getContractAddress() public view returns(address){\r\n      return contractAddress;\r\n    }\r\n    function getStartTime() public view returns (uint256){\r\n      return myRequest.StartTime;\r\n    }\r\n    function getDuration() public view returns (uint256) {\r\n        return myRequest.Duration;\r\n    }\r\n    function getQuality() public view returns (uint){\r\n      return myRequest.Quality;\r\n    }\r\n    function getType() public view returns (uint){\r\n      return myRequest.Type;\r\n    }\r\n    function getAppAddress() public view returns (address){\r\n      return appAddress;\r\n    }\r\n    function getRequiredToken() public view returns (uint256){\r\n      return requiredToken;\r\n    }\r\n    function getTokenTrasnferredStatus() public view returns(bool){\r\n      return tokenTransferred;\r\n    }\r\n    function getRequestSentStatus() public view returns(bool){\r\n      return requestSent;\r\n    }\r\n    function getRequestAcknowledgeStatus() public view returns(bool){\r\n      return requestAcknowledged;\r\n    }\r\n    function getPublicData() public view returns(uint256){\r\n      return publicData;\r\n    }\r\n\r\n}\r\n",
  "sourcePath": "C:\\Users\\Lewt\\Documents\\MasterThesis\\Dapp\\backend\\contracts\\AppMachine.sol",
  "compiler": {
    "name": "solc",
    "version": "0.5.16+commit.9c3226ce.Emscripten.clang"
  },
  "schemaVersion": "3.2.0",
  "updatedAt": "2020-09-20T17:49:02.614Z",
  "networkType": "ethereum",
  "devdoc": {
    "methods": {}
  },
  "userdoc": {
    "methods": {}
  }
}