{
  "contractName": "Sensor",
  "abi": [
    {
      "inputs": [],
      "payable": false,
      "stateMutability": "nonpayable",
      "type": "constructor"
    },
    {
      "constant": true,
      "inputs": [],
      "name": "getCurrentData",
      "outputs": [
        {
          "internalType": "uint256",
          "name": "",
          "type": "uint256"
        }
      ],
      "payable": false,
      "stateMutability": "view",
      "type": "function"
    }
  ],
  "bytecode": "0x608060405234801561001057600080fd5b5061022b60008190555033600160006101000a81548173ffffffffffffffffffffffffffffffffffffffff021916908373ffffffffffffffffffffffffffffffffffffffff16021790555060e1806100696000396000f3fe6080604052348015600f57600080fd5b506004361060285760003560e01c8063770b541414602d575b600080fd5b60336049565b6040518082815260200191505060405180910390f35b6000600160009054906101000a900473ffffffffffffffffffffffffffffffffffffffff1673ffffffffffffffffffffffffffffffffffffffff163373ffffffffffffffffffffffffffffffffffffffff161460a457600080fd5b60005490509056fea265627a7a72315820361d14116da6a694b98cbd2d25d357013fd4f087a5f791aabe41d5cb7e15a21d64736f6c63430005100032",
  "source": "pragma solidity ^0.5.0;\r\n\r\nimport './ERC827.sol';\r\nimport './AppMachine.sol';\r\n\r\ncontract Sensor {\r\n\r\n\tuint256 sensorData;\r\n\taddress appAddress;\r\n\r\n\t//Wird vom Contract AppMachine aufgerufen und speichert die Addresse dieses Contracts\r\n\tconstructor () public {\r\n\t\tsensorData = 555;\r\n\t\tappAddress = msg.sender;\r\n\t}\r\n\t\r\n\t//Stellt sicher, dass nur der Contract AppMachine diese Funktion aufrufen kann\r\n\tmodifier fromContract{\r\n\t\trequire(msg.sender == appAddress);\r\n\t\t_;\r\n\t}\r\n\r\n\tfunction getCurrentData() public view fromContract returns(uint256)\r\n\t{\r\n\t\treturn sensorData;\r\n\t}\r\n\r\n}",
  "sourcePath": "C:\\Users\\Lewt\\Documents\\MasterThesis\\Dapp\\backend\\contracts\\Sensor.sol",
  "compiler": {
    "name": "solc",
    "version": "0.5.16+commit.9c3226ce.Emscripten.clang"
  },
  "schemaVersion": "3.2.0",
  "updatedAt": "2020-09-20T17:48:55.222Z",
  "devdoc": {
    "methods": {}
  },
  "userdoc": {
    "methods": {}
  }
}